{
  "contractName": "ERC721Brands",
  "abi": [
    {
      "inputs": [],
      "stateMutability": "nonpayable",
      "type": "constructor"
    },
    {
      "anonymous": false,
      "inputs": [
        {
          "indexed": true,
          "internalType": "address",
          "name": "owner",
          "type": "address"
        },
        {
          "indexed": true,
          "internalType": "address",
          "name": "approved",
          "type": "address"
        },
        {
          "indexed": true,
          "internalType": "uint256",
          "name": "tokenId",
          "type": "uint256"
        }
      ],
      "name": "Approval",
      "type": "event"
    },
    {
      "anonymous": false,
      "inputs": [
        {
          "indexed": true,
          "internalType": "address",
          "name": "owner",
          "type": "address"
        },
        {
          "indexed": true,
          "internalType": "address",
          "name": "operator",
          "type": "address"
        },
        {
          "indexed": false,
          "internalType": "bool",
          "name": "approved",
          "type": "bool"
        }
      ],
      "name": "ApprovalForAll",
      "type": "event"
    },
    {
      "anonymous": false,
      "inputs": [
        {
          "indexed": true,
          "internalType": "address",
          "name": "from",
          "type": "address"
        },
        {
          "indexed": true,
          "internalType": "address",
          "name": "to",
          "type": "address"
        },
        {
          "indexed": true,
          "internalType": "uint256",
          "name": "tokenId",
          "type": "uint256"
        }
      ],
      "name": "Transfer",
      "type": "event"
    },
    {
      "inputs": [
        {
          "internalType": "address",
          "name": "to",
          "type": "address"
        },
        {
          "internalType": "uint256",
          "name": "tokenId",
          "type": "uint256"
        }
      ],
      "name": "approve",
      "outputs": [],
      "stateMutability": "nonpayable",
      "type": "function"
    },
    {
      "inputs": [
        {
          "internalType": "address",
          "name": "owner",
          "type": "address"
        }
      ],
      "name": "balanceOf",
      "outputs": [
        {
          "internalType": "uint256",
          "name": "",
          "type": "uint256"
        }
      ],
      "stateMutability": "view",
      "type": "function",
      "constant": true
    },
    {
      "inputs": [],
      "name": "baseURI",
      "outputs": [
        {
          "internalType": "string",
          "name": "",
          "type": "string"
        }
      ],
      "stateMutability": "view",
      "type": "function",
      "constant": true
    },
    {
      "inputs": [
        {
          "internalType": "uint256",
          "name": "",
          "type": "uint256"
        }
      ],
      "name": "brands",
      "outputs": [
        {
          "internalType": "string",
          "name": "",
          "type": "string"
        }
      ],
      "stateMutability": "view",
      "type": "function",
      "constant": true
    },
    {
      "inputs": [
        {
          "internalType": "uint256",
          "name": "tokenId",
          "type": "uint256"
        }
      ],
      "name": "getApproved",
      "outputs": [
        {
          "internalType": "address",
          "name": "",
          "type": "address"
        }
      ],
      "stateMutability": "view",
      "type": "function",
      "constant": true
    },
    {
      "inputs": [
        {
          "internalType": "address",
          "name": "owner",
          "type": "address"
        },
        {
          "internalType": "address",
          "name": "operator",
          "type": "address"
        }
      ],
      "name": "isApprovedForAll",
      "outputs": [
        {
          "internalType": "bool",
          "name": "",
          "type": "bool"
        }
      ],
      "stateMutability": "view",
      "type": "function",
      "constant": true
    },
    {
      "inputs": [],
      "name": "name",
      "outputs": [
        {
          "internalType": "string",
          "name": "",
          "type": "string"
        }
      ],
      "stateMutability": "view",
      "type": "function",
      "constant": true
    },
    {
      "inputs": [
        {
          "internalType": "uint256",
          "name": "tokenId",
          "type": "uint256"
        }
      ],
      "name": "ownerOf",
      "outputs": [
        {
          "internalType": "address",
          "name": "",
          "type": "address"
        }
      ],
      "stateMutability": "view",
      "type": "function",
      "constant": true
    },
    {
      "inputs": [
        {
          "internalType": "address",
          "name": "from",
          "type": "address"
        },
        {
          "internalType": "address",
          "name": "to",
          "type": "address"
        },
        {
          "internalType": "uint256",
          "name": "tokenId",
          "type": "uint256"
        }
      ],
      "name": "safeTransferFrom",
      "outputs": [],
      "stateMutability": "nonpayable",
      "type": "function"
    },
    {
      "inputs": [
        {
          "internalType": "address",
          "name": "from",
          "type": "address"
        },
        {
          "internalType": "address",
          "name": "to",
          "type": "address"
        },
        {
          "internalType": "uint256",
          "name": "tokenId",
          "type": "uint256"
        },
        {
          "internalType": "bytes",
          "name": "_data",
          "type": "bytes"
        }
      ],
      "name": "safeTransferFrom",
      "outputs": [],
      "stateMutability": "nonpayable",
      "type": "function"
    },
    {
      "inputs": [
        {
          "internalType": "address",
          "name": "operator",
          "type": "address"
        },
        {
          "internalType": "bool",
          "name": "approved",
          "type": "bool"
        }
      ],
      "name": "setApprovalForAll",
      "outputs": [],
      "stateMutability": "nonpayable",
      "type": "function"
    },
    {
      "inputs": [
        {
          "internalType": "bytes4",
          "name": "interfaceId",
          "type": "bytes4"
        }
      ],
      "name": "supportsInterface",
      "outputs": [
        {
          "internalType": "bool",
          "name": "",
          "type": "bool"
        }
      ],
      "stateMutability": "view",
      "type": "function",
      "constant": true
    },
    {
      "inputs": [],
      "name": "symbol",
      "outputs": [
        {
          "internalType": "string",
          "name": "",
          "type": "string"
        }
      ],
      "stateMutability": "view",
      "type": "function",
      "constant": true
    },
    {
      "inputs": [
        {
          "internalType": "uint256",
          "name": "index",
          "type": "uint256"
        }
      ],
      "name": "tokenByIndex",
      "outputs": [
        {
          "internalType": "uint256",
          "name": "",
          "type": "uint256"
        }
      ],
      "stateMutability": "view",
      "type": "function",
      "constant": true
    },
    {
      "inputs": [
        {
          "internalType": "address",
          "name": "owner",
          "type": "address"
        },
        {
          "internalType": "uint256",
          "name": "index",
          "type": "uint256"
        }
      ],
      "name": "tokenOfOwnerByIndex",
      "outputs": [
        {
          "internalType": "uint256",
          "name": "",
          "type": "uint256"
        }
      ],
      "stateMutability": "view",
      "type": "function",
      "constant": true
    },
    {
      "inputs": [
        {
          "internalType": "uint256",
          "name": "tokenId",
          "type": "uint256"
        }
      ],
      "name": "tokenURI",
      "outputs": [
        {
          "internalType": "string",
          "name": "",
          "type": "string"
        }
      ],
      "stateMutability": "view",
      "type": "function",
      "constant": true
    },
    {
      "inputs": [],
      "name": "totalSupply",
      "outputs": [
        {
          "internalType": "uint256",
          "name": "",
          "type": "uint256"
        }
      ],
      "stateMutability": "view",
      "type": "function",
      "constant": true
    },
    {
      "inputs": [
        {
          "internalType": "address",
          "name": "from",
          "type": "address"
        },
        {
          "internalType": "address",
          "name": "to",
          "type": "address"
        },
        {
          "internalType": "uint256",
          "name": "tokenId",
          "type": "uint256"
        }
      ],
      "name": "transferFrom",
      "outputs": [],
      "stateMutability": "nonpayable",
      "type": "function"
    },
    {
      "inputs": [
        {
          "internalType": "string",
          "name": "_brand",
          "type": "string"
        }
      ],
      "name": "mint",
      "outputs": [],
      "stateMutability": "nonpayable",
      "type": "function"
    },
    {
      "inputs": [],
      "name": "getBrands",
      "outputs": [
        {
          "internalType": "string[]",
          "name": "",
          "type": "string[]"
        }
      ],
      "stateMutability": "view",
      "type": "function",
      "constant": true
    }
  ],
  "bytecode": "0x60806040523480156200001157600080fd5b506040518060400160405280600581526020017f4272616e640000000000000000000000000000000000000000000000000000008152506040518060400160405280600581526020017f4252414e44000000000000000000000000000000000000000000000000000000815250620000966301ffc9a760e01b6200011860201b60201c565b8160069080519060200190620000ae929190620001f0565b508060079080519060200190620000c7929190620001f0565b50620000e06380ac58cd60e01b6200011860201b60201c565b620000f8635b5e139f60e01b6200011860201b60201c565b6200011063780e9d6360e01b6200011860201b60201c565b505062000314565b63ffffffff60e01b817bffffffffffffffffffffffffffffffffffffffffffffffffffffffff1916141562000184576040517f08c379a00000000000000000000000000000000000000000000000000000000081526004016200017b90620002e1565b60405180910390fd5b6001600080837bffffffffffffffffffffffffffffffffffffffffffffffffffffffff19167bffffffffffffffffffffffffffffffffffffffffffffffffffffffff1916815260200190815260200160002060006101000a81548160ff02191690831515021790555050565b828054600181600116156101000203166002900490600052602060002090601f016020900481019282601f106200023357805160ff191683800117855562000264565b8280016001018555821562000264579182015b828111156200026357825182559160200191906001019062000246565b5b50905062000273919062000277565b5090565b6200029c91905b80821115620002985760008160009055506001016200027e565b5090565b90565b6000620002ae601c8362000303565b91507f4552433136353a20696e76616c696420696e74657266616365206964000000006000830152602082019050919050565b60006020820190508181036000830152620002fc816200029f565b9050919050565b600082825260208201905092915050565b6131cc80620003246000396000f3fe608060405234801561001057600080fd5b506004361061012c5760003560e01c80636c0360eb116100ad578063b88d4fde11610071578063b88d4fde14610357578063c87b56dd14610373578063d85d3d27146103a3578063e985e9c5146103bf578063fdcb5732146103ef5761012c565b80636c0360eb146102b157806370a08231146102cf578063822d487d146102ff57806395d89b411461031d578063a22cb4651461033b5761012c565b806323b872dd116100f457806323b872dd146101e95780632f745c591461020557806342842e0e146102355780634f6ccce7146102515780636352211e146102815761012c565b806301ffc9a71461013157806306fdde0314610161578063081812fc1461017f578063095ea7b3146101af57806318160ddd146101cb575b600080fd5b61014b600480360381019061014691906122bd565b61041f565b6040516101589190612c7c565b60405180910390f35b610169610486565b6040516101769190612c97565b60405180910390f35b61019960048036038101906101949190612350565b610528565b6040516101a69190612bf3565b60405180910390f35b6101c960048036038101906101c49190612281565b6105ad565b005b6101d36106c5565b6040516101e09190612eb9565b60405180910390f35b61020360048036038101906101fe919061217b565b6106d6565b005b61021f600480360381019061021a9190612281565b610736565b60405161022c9190612eb9565b60405180910390f35b61024f600480360381019061024a919061217b565b610791565b005b61026b60048036038101906102669190612350565b6107b1565b6040516102789190612eb9565b60405180910390f35b61029b60048036038101906102969190612350565b6107d4565b6040516102a89190612bf3565b60405180910390f35b6102b961080b565b6040516102c69190612c97565b60405180910390f35b6102e960048036038101906102e49190612116565b6108ad565b6040516102f69190612eb9565b60405180910390f35b61030761096c565b6040516103149190612c5a565b60405180910390f35b610325610a55565b6040516103329190612c97565b60405180910390f35b61035560048036038101906103509190612245565b610af7565b005b610371600480360381019061036c91906121ca565b610c78565b005b61038d60048036038101906103889190612350565b610cda565b60405161039a9190612c97565b60405180910390f35b6103bd60048036038101906103b8919061230f565b610e65565b005b6103d960048036038101906103d4919061213f565b610f26565b6040516103e69190612c7c565b60405180910390f35b61040960048036038101906104049190612350565b610fba565b6040516104169190612c97565b60405180910390f35b6000806000837bffffffffffffffffffffffffffffffffffffffffffffffffffffffff19167bffffffffffffffffffffffffffffffffffffffffffffffffffffffff1916815260200190815260200160002060009054906101000a900460ff169050919050565b606060068054600181600116156101000203166002900480601f01602080910402602001604051908101604052809291908181526020018280546001816001161561010002031660029004801561051e5780601f106104f35761010080835404028352916020019161051e565b820191906000526020600020905b81548152906001019060200180831161050157829003601f168201915b5050505050905090565b600061053382611073565b610572576040517f08c379a000000000000000000000000000000000000000000000000000000000815260040161056990612df9565b60405180910390fd5b6004600083815260200190815260200160002060009054906101000a900473ffffffffffffffffffffffffffffffffffffffff169050919050565b60006105b8826107d4565b90508073ffffffffffffffffffffffffffffffffffffffff168373ffffffffffffffffffffffffffffffffffffffff161415610629576040517f08c379a000000000000000000000000000000000000000000000000000000000815260040161062090612e59565b60405180910390fd5b8073ffffffffffffffffffffffffffffffffffffffff16610648611090565b73ffffffffffffffffffffffffffffffffffffffff161480610677575061067681610671611090565b610f26565b5b6106b6576040517f08c379a00000000000000000000000000000000000000000000000000000000081526004016106ad90612d79565b60405180910390fd5b6106c08383611098565b505050565b60006106d16002611151565b905090565b6106e76106e1611090565b82611166565b610726576040517f08c379a000000000000000000000000000000000000000000000000000000000815260040161071d90612e79565b60405180910390fd5b610731838383611244565b505050565b600061078982600160008673ffffffffffffffffffffffffffffffffffffffff1673ffffffffffffffffffffffffffffffffffffffff16815260200190815260200160002061145b90919063ffffffff16565b905092915050565b6107ac83838360405180602001604052806000815250610c78565b505050565b6000806107c883600261147590919063ffffffff16565b50905080915050919050565b60006108048260405180606001604052806029815260200161316e6029913960026114a49092919063ffffffff16565b9050919050565b606060098054600181600116156101000203166002900480601f0160208091040260200160405190810160405280929190818152602001828054600181600116156101000203166002900480156108a35780601f10610878576101008083540402835291602001916108a3565b820191906000526020600020905b81548152906001019060200180831161088657829003601f168201915b5050505050905090565b60008073ffffffffffffffffffffffffffffffffffffffff168273ffffffffffffffffffffffffffffffffffffffff16141561091e576040517f08c379a000000000000000000000000000000000000000000000000000000000815260040161091590612d99565b60405180910390fd5b610965600160008473ffffffffffffffffffffffffffffffffffffffff1673ffffffffffffffffffffffffffffffffffffffff1681526020019081526020016000206114c3565b9050919050565b6060600a805480602002602001604051908101604052809291908181526020016000905b82821015610a4c578382906000526020600020018054600181600116156101000203166002900480601f016020809104026020016040519081016040528092919081815260200182805460018160011615610100020316600290048015610a385780601f10610a0d57610100808354040283529160200191610a38565b820191906000526020600020905b815481529060010190602001808311610a1b57829003601f168201915b505050505081526020019060010190610990565b50505050905090565b606060078054600181600116156101000203166002900480601f016020809104026020016040519081016040528092919081815260200182805460018160011615610100020316600290048015610aed5780601f10610ac257610100808354040283529160200191610aed565b820191906000526020600020905b815481529060010190602001808311610ad057829003601f168201915b5050505050905090565b610aff611090565b73ffffffffffffffffffffffffffffffffffffffff168273ffffffffffffffffffffffffffffffffffffffff161415610b6d576040517f08c379a0000000000000000000000000000000000000000000000000000000008152600401610b6490612d39565b60405180910390fd5b8060056000610b7a611090565b73ffffffffffffffffffffffffffffffffffffffff1673ffffffffffffffffffffffffffffffffffffffff16815260200190815260200160002060008473ffffffffffffffffffffffffffffffffffffffff1673ffffffffffffffffffffffffffffffffffffffff16815260200190815260200160002060006101000a81548160ff0219169083151502179055508173ffffffffffffffffffffffffffffffffffffffff16610c27611090565b73ffffffffffffffffffffffffffffffffffffffff167f17307eab39ab6107e8899845ad3d59bd9653f200f220920489ca2b5937696c3183604051610c6c9190612c7c565b60405180910390a35050565b610c89610c83611090565b83611166565b610cc8576040517f08c379a0000000000000000000000000000000000000000000000000000000008152600401610cbf90612e79565b60405180910390fd5b610cd4848484846114d8565b50505050565b6060610ce582611073565b610d24576040517f08c379a0000000000000000000000000000000000000000000000000000000008152600401610d1b90612e39565b60405180910390fd5b6060600860008481526020019081526020016000208054600181600116156101000203166002900480601f016020809104026020016040519081016040528092919081815260200182805460018160011615610100020316600290048015610dcd5780601f10610da257610100808354040283529160200191610dcd565b820191906000526020600020905b815481529060010190602001808311610db057829003601f168201915b50505050509050600060098054600181600116156101000203166002900490501415610dfc5780915050610e60565b600081511115610e3157600981604051602001610e1a929190612bcf565b604051602081830303815290604052915050610e60565b6009610e3c84611534565b604051602001610e4d929190612bcf565b6040516020818303038152906040529150505b919050565b600b81604051610e759190612bb8565b908152602001604051809103902060009054906101000a900460ff1615610e9b57600080fd5b600a81908060018154018082558091505060019003906000526020600020016000909190919091509080519060200190610ed6929190611f60565b506000600a805490509050610eeb338261167b565b6001600b83604051610efd9190612bb8565b908152602001604051809103902060006101000a81548160ff0219169083151502179055505050565b6000600560008473ffffffffffffffffffffffffffffffffffffffff1673ffffffffffffffffffffffffffffffffffffffff16815260200190815260200160002060008373ffffffffffffffffffffffffffffffffffffffff1673ffffffffffffffffffffffffffffffffffffffff16815260200190815260200160002060009054906101000a900460ff16905092915050565b600a8181548110610fc757fe5b906000526020600020016000915090508054600181600116156101000203166002900480601f01602080910402602001604051908101604052809291908181526020018280546001816001161561010002031660029004801561106b5780601f106110405761010080835404028352916020019161106b565b820191906000526020600020905b81548152906001019060200180831161104e57829003601f168201915b505050505081565b600061108982600261180990919063ffffffff16565b9050919050565b600033905090565b816004600083815260200190815260200160002060006101000a81548173ffffffffffffffffffffffffffffffffffffffff021916908373ffffffffffffffffffffffffffffffffffffffff160217905550808273ffffffffffffffffffffffffffffffffffffffff1661110b836107d4565b73ffffffffffffffffffffffffffffffffffffffff167f8c5be1e5ebec7d5bd14f71427d1e84f3dd0314c0f7b2291e5b200ac8c7c3b92560405160405180910390a45050565b600061115f82600001611823565b9050919050565b600061117182611073565b6111b0576040517f08c379a00000000000000000000000000000000000000000000000000000000081526004016111a790612d59565b60405180910390fd5b60006111bb836107d4565b90508073ffffffffffffffffffffffffffffffffffffffff168473ffffffffffffffffffffffffffffffffffffffff16148061122a57508373ffffffffffffffffffffffffffffffffffffffff1661121284610528565b73ffffffffffffffffffffffffffffffffffffffff16145b8061123b575061123a8185610f26565b5b91505092915050565b8273ffffffffffffffffffffffffffffffffffffffff16611264826107d4565b73ffffffffffffffffffffffffffffffffffffffff16146112ba576040517f08c379a00000000000000000000000000000000000000000000000000000000081526004016112b190612e19565b60405180910390fd5b600073ffffffffffffffffffffffffffffffffffffffff168273ffffffffffffffffffffffffffffffffffffffff16141561132a576040517f08c379a000000000000000000000000000000000000000000000000000000000815260040161132190612d19565b60405180910390fd5b611335838383611834565b611340600082611098565b61139181600160008673ffffffffffffffffffffffffffffffffffffffff1673ffffffffffffffffffffffffffffffffffffffff16815260200190815260200160002061183990919063ffffffff16565b506113e381600160008573ffffffffffffffffffffffffffffffffffffffff1673ffffffffffffffffffffffffffffffffffffffff16815260200190815260200160002061185390919063ffffffff16565b506113fa8183600261186d9092919063ffffffff16565b50808273ffffffffffffffffffffffffffffffffffffffff168473ffffffffffffffffffffffffffffffffffffffff167fddf252ad1be2c89b69c2b068fc378daa952ba7f163c4a11628f55a4df523b3ef60405160405180910390a4505050565b600061146a83600001836118a2565b60001c905092915050565b600080600080611488866000018661190f565b915091508160001c8160001c8090509350935050509250929050565b60006114b7846000018460001b84611992565b60001c90509392505050565b60006114d182600001611a23565b9050919050565b6114e3848484611244565b6114ef84848484611a34565b61152e576040517f08c379a000000000000000000000000000000000000000000000000000000000815260040161152590612cd9565b60405180910390fd5b50505050565b6060600082141561157c576040518060400160405280600181526020017f30000000000000000000000000000000000000000000000000000000000000008152509050611676565b600082905060005b600082146115a6578080600101915050600a828161159e57fe5b049150611584565b60608167ffffffffffffffff811180156115bf57600080fd5b506040519080825280601f01601f1916602001820160405280156115f25781602001600182028036833780820191505090505b50905060006001830390508593505b6000841461166e57600a848161161357fe5b0660300160f81b8282806001900393508151811061162d57fe5b60200101907effffffffffffffffffffffffffffffffffffffffffffffffffffffffffffff1916908160001a905350600a848161166657fe5b049350611601565b819450505050505b919050565b600073ffffffffffffffffffffffffffffffffffffffff168273ffffffffffffffffffffffffffffffffffffffff1614156116eb576040517f08c379a00000000000000000000000000000000000000000000000000000000081526004016116e290612dd9565b60405180910390fd5b6116f481611073565b15611734576040517f08c379a000000000000000000000000000000000000000000000000000000000815260040161172b90612cf9565b60405180910390fd5b61174060008383611834565b61179181600160008573ffffffffffffffffffffffffffffffffffffffff1673ffffffffffffffffffffffffffffffffffffffff16815260200190815260200160002061185390919063ffffffff16565b506117a88183600261186d9092919063ffffffff16565b50808273ffffffffffffffffffffffffffffffffffffffff16600073ffffffffffffffffffffffffffffffffffffffff167fddf252ad1be2c89b69c2b068fc378daa952ba7f163c4a11628f55a4df523b3ef60405160405180910390a45050565b600061181b836000018360001b611b98565b905092915050565b600081600001805490509050919050565b505050565b600061184b836000018360001b611bbb565b905092915050565b6000611865836000018360001b611ca3565b905092915050565b6000611899846000018460001b8473ffffffffffffffffffffffffffffffffffffffff1660001b611d13565b90509392505050565b6000818360000180549050116118ed576040517f08c379a00000000000000000000000000000000000000000000000000000000081526004016118e490612cb9565b60405180910390fd5b8260000182815481106118fc57fe5b9060005260206000200154905092915050565b6000808284600001805490501161195b576040517f08c379a000000000000000000000000000000000000000000000000000000000815260040161195290612db9565b60405180910390fd5b600084600001848154811061196c57fe5b906000526020600020906002020190508060000154816001015492509250509250929050565b600080846001016000858152602001908152602001600020549050600081141583906119f4576040517f08c379a00000000000000000000000000000000000000000000000000000000081526004016119eb9190612c97565b60405180910390fd5b50846000016001820381548110611a0757fe5b9060005260206000209060020201600101549150509392505050565b600081600001805490509050919050565b6000611a558473ffffffffffffffffffffffffffffffffffffffff16611def565b611a625760019050611b90565b6060611b2963150b7a0260e01b611a77611090565b888787604051602401611a8d9493929190612c0e565b604051602081830303815290604052907bffffffffffffffffffffffffffffffffffffffffffffffffffffffff19166020820180517bffffffffffffffffffffffffffffffffffffffffffffffffffffffff838183161783525050505060405180606001604052806032815260200161313c603291398773ffffffffffffffffffffffffffffffffffffffff16611e029092919063ffffffff16565b9050600081806020019051810190611b4191906122e6565b905063150b7a0260e01b7bffffffffffffffffffffffffffffffffffffffffffffffffffffffff1916817bffffffffffffffffffffffffffffffffffffffffffffffffffffffff191614925050505b949350505050565b600080836001016000848152602001908152602001600020541415905092915050565b60008083600101600084815260200190815260200160002054905060008114611c975760006001820390506000600186600001805490500390506000866000018281548110611c0657fe5b9060005260206000200154905080876000018481548110611c2357fe5b9060005260206000200181905550600183018760010160008381526020019081526020016000208190555086600001805480611c5b57fe5b60019003818190600052602060002001600090559055866001016000878152602001908152602001600020600090556001945050505050611c9d565b60009150505b92915050565b6000611caf8383611e1a565b611d08578260000182908060018154018082558091505060019003906000526020600020016000909190919091505582600001805490508360010160008481526020019081526020016000208190555060019050611d0d565b600090505b92915050565b6000808460010160008581526020019081526020016000205490506000811415611dba57846000016040518060400160405280868152602001858152509080600181540180825580915050600190039060005260206000209060020201600090919091909150600082015181600001556020820151816001015550508460000180549050856001016000868152602001908152602001600020819055506001915050611de8565b82856000016001830381548110611dcd57fe5b90600052602060002090600202016001018190555060009150505b9392505050565b600080823b905060008111915050919050565b6060611e118484600085611e3d565b90509392505050565b600080836001016000848152602001908152602001600020541415905092915050565b6060611e4885611def565b611e87576040517f08c379a0000000000000000000000000000000000000000000000000000000008152600401611e7e90612e99565b60405180910390fd5b600060608673ffffffffffffffffffffffffffffffffffffffff168587604051611eb19190612ba1565b60006040518083038185875af1925050503d8060008114611eee576040519150601f19603f3d011682016040523d82523d6000602084013e611ef3565b606091505b50915091508115611f08578092505050611f58565b600081511115611f1b5780518082602001fd5b836040517f08c379a0000000000000000000000000000000000000000000000000000000008152600401611f4f9190612c97565b60405180910390fd5b949350505050565b828054600181600116156101000203166002900490600052602060002090601f016020900481019282601f10611fa157805160ff1916838001178555611fcf565b82800160010185558215611fcf579182015b82811115611fce578251825591602001919060010190611fb3565b5b509050611fdc9190611fe0565b5090565b61200291905b80821115611ffe576000816000905550600101611fe6565b5090565b90565b600081359050612014816130df565b92915050565b600081359050612029816130f6565b92915050565b60008135905061203e8161310d565b92915050565b6000815190506120538161310d565b92915050565b600082601f83011261206a57600080fd5b813561207d61207882612f01565b612ed4565b9150808252602083016020830185838301111561209957600080fd5b6120a483828461308c565b50505092915050565b600082601f8301126120be57600080fd5b81356120d16120cc82612f2d565b612ed4565b915080825260208301602083018583830111156120ed57600080fd5b6120f883828461308c565b50505092915050565b60008135905061211081613124565b92915050565b60006020828403121561212857600080fd5b600061213684828501612005565b91505092915050565b6000806040838503121561215257600080fd5b600061216085828601612005565b925050602061217185828601612005565b9150509250929050565b60008060006060848603121561219057600080fd5b600061219e86828701612005565b93505060206121af86828701612005565b92505060406121c086828701612101565b9150509250925092565b600080600080608085870312156121e057600080fd5b60006121ee87828801612005565b94505060206121ff87828801612005565b935050604061221087828801612101565b925050606085013567ffffffffffffffff81111561222d57600080fd5b61223987828801612059565b91505092959194509250565b6000806040838503121561225857600080fd5b600061226685828601612005565b92505060206122778582860161201a565b9150509250929050565b6000806040838503121561229457600080fd5b60006122a285828601612005565b92505060206122b385828601612101565b9150509250929050565b6000602082840312156122cf57600080fd5b60006122dd8482850161202f565b91505092915050565b6000602082840312156122f857600080fd5b600061230684828501612044565b91505092915050565b60006020828403121561232157600080fd5b600082013567ffffffffffffffff81111561233b57600080fd5b612347848285016120ad565b91505092915050565b60006020828403121561236257600080fd5b600061237084828501612101565b91505092915050565b60006123858383612499565b905092915050565b61239681613018565b82525050565b6123a581613006565b82525050565b60006123b682612f7e565b6123c08185612fac565b9350836020820285016123d285612f59565b8060005b8581101561240e57848403895281516123ef8582612379565b94506123fa83612f9f565b925060208a019950506001810190506123d6565b50829750879550505050505092915050565b6124298161302a565b82525050565b600061243a82612f89565b6124448185612fbd565b935061245481856020860161309b565b61245d816130ce565b840191505092915050565b600061247382612f89565b61247d8185612fce565b935061248d81856020860161309b565b80840191505092915050565b60006124a482612f94565b6124ae8185612fd9565b93506124be81856020860161309b565b6124c7816130ce565b840191505092915050565b60006124dd82612f94565b6124e78185612fea565b93506124f781856020860161309b565b612500816130ce565b840191505092915050565b600061251682612f94565b6125208185612ffb565b935061253081856020860161309b565b80840191505092915050565b600081546001811660008114612559576001811461257e576125c2565b607f600283041661256a8187612ffb565b955060ff19831686528086019350506125c2565b6002820461258c8187612ffb565b955061259785612f69565b60005b828110156125b95781548189015260018201915060208101905061259a565b82880195505050505b505092915050565b60006125d7602283612fea565b91507f456e756d657261626c655365743a20696e646578206f7574206f6620626f756e60008301527f64730000000000000000000000000000000000000000000000000000000000006020830152604082019050919050565b600061263d603283612fea565b91507f4552433732313a207472616e7366657220746f206e6f6e20455243373231526560008301527f63656976657220696d706c656d656e74657200000000000000000000000000006020830152604082019050919050565b60006126a3601c83612fea565b91507f4552433732313a20746f6b656e20616c7265616479206d696e746564000000006000830152602082019050919050565b60006126e3602483612fea565b91507f4552433732313a207472616e7366657220746f20746865207a65726f2061646460008301527f72657373000000000000000000000000000000000000000000000000000000006020830152604082019050919050565b6000612749601983612fea565b91507f4552433732313a20617070726f766520746f2063616c6c6572000000000000006000830152602082019050919050565b6000612789602c83612fea565b91507f4552433732313a206f70657261746f7220717565727920666f72206e6f6e657860008301527f697374656e7420746f6b656e00000000000000000000000000000000000000006020830152604082019050919050565b60006127ef603883612fea565b91507f4552433732313a20617070726f76652063616c6c6572206973206e6f74206f7760008301527f6e6572206e6f7220617070726f76656420666f7220616c6c00000000000000006020830152604082019050919050565b6000612855602a83612fea565b91507f4552433732313a2062616c616e636520717565727920666f7220746865207a6560008301527f726f2061646472657373000000000000000000000000000000000000000000006020830152604082019050919050565b60006128bb602283612fea565b91507f456e756d657261626c654d61703a20696e646578206f7574206f6620626f756e60008301527f64730000000000000000000000000000000000000000000000000000000000006020830152604082019050919050565b6000612921602083612fea565b91507f4552433732313a206d696e7420746f20746865207a65726f20616464726573736000830152602082019050919050565b6000612961602c83612fea565b91507f4552433732313a20617070726f76656420717565727920666f72206e6f6e657860008301527f697374656e7420746f6b656e00000000000000000000000000000000000000006020830152604082019050919050565b60006129c7602983612fea565b91507f4552433732313a207472616e73666572206f6620746f6b656e2074686174206960008301527f73206e6f74206f776e00000000000000000000000000000000000000000000006020830152604082019050919050565b6000612a2d602f83612fea565b91507f4552433732314d657461646174613a2055524920717565727920666f72206e6f60008301527f6e6578697374656e7420746f6b656e00000000000000000000000000000000006020830152604082019050919050565b6000612a93602183612fea565b91507f4552433732313a20617070726f76616c20746f2063757272656e74206f776e6560008301527f72000000000000000000000000000000000000000000000000000000000000006020830152604082019050919050565b6000612af9603183612fea565b91507f4552433732313a207472616e736665722063616c6c6572206973206e6f74206f60008301527f776e6572206e6f7220617070726f7665640000000000000000000000000000006020830152604082019050919050565b6000612b5f601d83612fea565b91507f416464726573733a2063616c6c20746f206e6f6e2d636f6e74726163740000006000830152602082019050919050565b612b9b81613082565b82525050565b6000612bad8284612468565b915081905092915050565b6000612bc4828461250b565b915081905092915050565b6000612bdb828561253c565b9150612be7828461250b565b91508190509392505050565b6000602082019050612c08600083018461239c565b92915050565b6000608082019050612c23600083018761238d565b612c30602083018661239c565b612c3d6040830185612b92565b8181036060830152612c4f818461242f565b905095945050505050565b60006020820190508181036000830152612c7481846123ab565b905092915050565b6000602082019050612c916000830184612420565b92915050565b60006020820190508181036000830152612cb181846124d2565b905092915050565b60006020820190508181036000830152612cd2816125ca565b9050919050565b60006020820190508181036000830152612cf281612630565b9050919050565b60006020820190508181036000830152612d1281612696565b9050919050565b60006020820190508181036000830152612d32816126d6565b9050919050565b60006020820190508181036000830152612d528161273c565b9050919050565b60006020820190508181036000830152612d728161277c565b9050919050565b60006020820190508181036000830152612d92816127e2565b9050919050565b60006020820190508181036000830152612db281612848565b9050919050565b60006020820190508181036000830152612dd2816128ae565b9050919050565b60006020820190508181036000830152612df281612914565b9050919050565b60006020820190508181036000830152612e1281612954565b9050919050565b60006020820190508181036000830152612e32816129ba565b9050919050565b60006020820190508181036000830152612e5281612a20565b9050919050565b60006020820190508181036000830152612e7281612a86565b9050919050565b60006020820190508181036000830152612e9281612aec565b9050919050565b60006020820190508181036000830152612eb281612b52565b9050919050565b6000602082019050612ece6000830184612b92565b92915050565b6000604051905081810181811067ffffffffffffffff82111715612ef757600080fd5b8060405250919050565b600067ffffffffffffffff821115612f1857600080fd5b601f19601f8301169050602081019050919050565b600067ffffffffffffffff821115612f4457600080fd5b601f19601f8301169050602081019050919050565b6000819050602082019050919050565b60008190508160005260206000209050919050565b600081519050919050565b600081519050919050565b600081519050919050565b6000602082019050919050565b600082825260208201905092915050565b600082825260208201905092915050565b600081905092915050565b600082825260208201905092915050565b600082825260208201905092915050565b600081905092915050565b600061301182613062565b9050919050565b600061302382613062565b9050919050565b60008115159050919050565b60007fffffffff0000000000000000000000000000000000000000000000000000000082169050919050565b600073ffffffffffffffffffffffffffffffffffffffff82169050919050565b6000819050919050565b82818337600083830152505050565b60005b838110156130b957808201518184015260208101905061309e565b838111156130c8576000848401525b50505050565b6000601f19601f8301169050919050565b6130e881613006565b81146130f357600080fd5b50565b6130ff8161302a565b811461310a57600080fd5b50565b61311681613036565b811461312157600080fd5b50565b61312d81613082565b811461313857600080fd5b5056fe4552433732313a207472616e7366657220746f206e6f6e20455243373231526563656976657220696d706c656d656e7465724552433732313a206f776e657220717565727920666f72206e6f6e6578697374656e7420746f6b656ea2646970667358221220136cf12fc363e5b063ee2a00767eb0cad9522aa084992f3da6170c6874cfa2d064736f6c63430006060033",
  "source": "pragma solidity 0.6.6;\r\npragma experimental ABIEncoderV2;\r\n\r\nimport \"@openzeppelin/contracts/token/ERC721/ERC721.sol\";\r\n\r\ncontract ERC721Brands is ERC721{\r\n\r\n    string[] public brands;\r\n    mapping(string => bool) brandExists;\r\n\r\n    constructor() ERC721(\"Brand\", \"BRAND\") public {\r\n    }\r\n\r\n    function mint(string memory _brand) public {\r\n        require(!brandExists[_brand]);\r\n        brands.push(_brand);\r\n        uint _id = brands.length;\r\n        _mint(msg.sender, _id);\r\n        brandExists[_brand] = true;\r\n    }\r\n\r\n    function getBrands() public view returns(string[] memory) {\r\n        return brands;\r\n    }\r\n\r\n}\r\n",
  "sourcePath": "C:\\Users\\shika\\Desktop\\blockchain\\practice\\ERC - 721\\contracts\\ERC721Brands.sol",
  "compiler": {
    "name": "solc",
    "version": "0.6.6+commit.6c089d02.Emscripten.clang"
  },
  "schemaVersion": "3.0.23",
  "updatedAt": "2020-11-23T08:03:00.569Z",
  "networkType": "ethereum",
  "devdoc": {
    "methods": {
      "approve(address,uint256)": {
        "details": "See {IERC721-approve}."
      },
      "balanceOf(address)": {
        "details": "See {IERC721-balanceOf}."
      },
      "baseURI()": {
        "details": "Returns the base URI set via {_setBaseURI}. This will be automatically added as a prefix in {tokenURI} to each token's URI, or to the token ID if no specific URI is set for that token ID."
      },
      "getApproved(uint256)": {
        "details": "See {IERC721-getApproved}."
      },
      "isApprovedForAll(address,address)": {
        "details": "See {IERC721-isApprovedForAll}."
      },
      "name()": {
        "details": "See {IERC721Metadata-name}."
      },
      "ownerOf(uint256)": {
        "details": "See {IERC721-ownerOf}."
      },
      "safeTransferFrom(address,address,uint256)": {
        "details": "See {IERC721-safeTransferFrom}."
      },
      "safeTransferFrom(address,address,uint256,bytes)": {
        "details": "See {IERC721-safeTransferFrom}."
      },
      "setApprovalForAll(address,bool)": {
        "details": "See {IERC721-setApprovalForAll}."
      },
      "supportsInterface(bytes4)": {
        "details": "See {IERC165-supportsInterface}.     * Time complexity O(1), guaranteed to always use less than 30 000 gas."
      },
      "symbol()": {
        "details": "See {IERC721Metadata-symbol}."
      },
      "tokenByIndex(uint256)": {
        "details": "See {IERC721Enumerable-tokenByIndex}."
      },
      "tokenOfOwnerByIndex(address,uint256)": {
        "details": "See {IERC721Enumerable-tokenOfOwnerByIndex}."
      },
      "tokenURI(uint256)": {
        "details": "See {IERC721Metadata-tokenURI}."
      },
      "totalSupply()": {
        "details": "See {IERC721Enumerable-totalSupply}."
      },
      "transferFrom(address,address,uint256)": {
        "details": "See {IERC721-transferFrom}."
      }
    }
  },
  "userdoc": {
    "methods": {}
  }
}